{
  "contractName": "Auth",
  "abi": [
    {
      "inputs": [
        {
          "internalType": "address",
          "name": "",
          "type": "address"
        }
      ],
      "name": "registeredUsers",
      "outputs": [
        {
          "internalType": "bool",
          "name": "",
          "type": "bool"
        }
      ],
      "stateMutability": "view",
      "type": "function",
      "constant": true
    },
    {
      "inputs": [],
      "name": "register",
      "outputs": [],
      "stateMutability": "nonpayable",
      "type": "function"
    },
    {
      "inputs": [
        {
          "internalType": "address",
          "name": "user",
          "type": "address"
        }
      ],
      "name": "isRegistered",
      "outputs": [
        {
          "internalType": "bool",
          "name": "",
          "type": "bool"
        }
      ],
      "stateMutability": "view",
      "type": "function",
      "constant": true
    }
  ],
  "bytecode": "0x608060405234801561001057600080fd5b50610271806100206000396000f3fe608060405234801561001057600080fd5b50600436106100415760003560e01c80630e50cee5146100465780631aa3a00814610076578063c3c5a54714610080575b600080fd5b610060600480360381019061005b9190610193565b6100b0565b60405161006d91906101cb565b60405180910390f35b61007e6100d0565b005b61009a60048036038101906100959190610193565b610129565b6040516100a791906101cb565b60405180910390f35b60006020528060005260406000206000915054906101000a900460ff1681565b60016000803373ffffffffffffffffffffffffffffffffffffffff1673ffffffffffffffffffffffffffffffffffffffff16815260200190815260200160002060006101000a81548160ff021916908315150217905550565b60008060008373ffffffffffffffffffffffffffffffffffffffff1673ffffffffffffffffffffffffffffffffffffffff16815260200190815260200160002060009054906101000a900460ff169050919050565b60008135905061018d81610224565b92915050565b6000602082840312156101a557600080fd5b60006101b38482850161017e565b91505092915050565b6101c5816101f8565b82525050565b60006020820190506101e060008301846101bc565b92915050565b60006101f182610204565b9050919050565b60008115159050919050565b600073ffffffffffffffffffffffffffffffffffffffff82169050919050565b61022d816101e6565b811461023857600080fd5b5056fea26469706673582212205d7a08b913cfbdf8c36fe63ae6c60e734e1aad1ff938c5a8282fcc2e810f599264736f6c63430008000033",
  "immutableReferences": {},
  "source": "pragma solidity ^0.8.0;\r\n\r\ncontract Auth {\r\n    mapping(address => bool) public registeredUsers;\r\n\r\n    function register() public {\r\n        registeredUsers[msg.sender] = true;\r\n    }\r\n\r\n    function isRegistered(address user) public view returns (bool) {\r\n        return registeredUsers[user];\r\n    }\r\n}",
  "sourcePath": "C:\\Users\\Niitro_musics\\Desktop\\Coding\\AITU\\2nd course\\Nodejs\\final_project\\contracts\\Auth.sol",
  "compiler": {
    "name": "solc",
    "version": "0.8.0+commit.c7dfd78e.Emscripten.clang"
  },
  "schemaVersion": "3.4.16",
  "updatedAt": "2024-11-15T11:42:23.996Z",
  "networkType": "ethereum",
  "devdoc": {
    "kind": "dev",
    "methods": {},
    "version": 1
  },
  "userdoc": {
    "kind": "user",
    "methods": {},
    "version": 1
  }
}